{
  "_format": "hh-sol-artifact-1",
  "contractName": "DisasterManagements",
  "sourceName": "contracts/DisasterManagement.sol",
  "abi": [
    {
      "inputs": [
        {
          "internalType": "string",
          "name": "_image",
          "type": "string"
        },
        {
          "internalType": "string",
          "name": "_cause",
          "type": "string"
        },
        {
          "internalType": "string",
          "name": "_location",
          "type": "string"
        },
        {
          "internalType": "uint256",
          "name": "_volCount",
          "type": "uint256"
        },
        {
          "internalType": "string",
          "name": "_description",
          "type": "string"
        },
        {
          "internalType": "string",
          "name": "_data",
          "type": "string"
        },
        {
          "internalType": "uint256",
          "name": "_amount",
          "type": "uint256"
        }
      ],
      "name": "DemandFund",
      "outputs": [
        {
          "internalType": "uint256",
          "name": "",
          "type": "uint256"
        }
      ],
      "stateMutability": "nonpayable",
      "type": "function"
    },
    {
      "inputs": [
        {
          "internalType": "uint256",
          "name": "_id",
          "type": "uint256"
        }
      ],
      "name": "Fundder",
      "outputs": [],
      "stateMutability": "payable",
      "type": "function"
    },
    {
      "inputs": [
        {
          "internalType": "uint256",
          "name": "_id",
          "type": "uint256"
        }
      ],
      "name": "Volunteer",
      "outputs": [],
      "stateMutability": "nonpayable",
      "type": "function"
    },
    {
      "inputs": [
        {
          "internalType": "uint256",
          "name": "",
          "type": "uint256"
        }
      ],
      "name": "disasters",
      "outputs": [
        {
          "internalType": "string",
          "name": "Image",
          "type": "string"
        },
        {
          "internalType": "string",
          "name": "DisasterCause",
          "type": "string"
        },
        {
          "internalType": "string",
          "name": "description",
          "type": "string"
        },
        {
          "internalType": "string",
          "name": "location",
          "type": "string"
        },
        {
          "internalType": "string",
          "name": "Date",
          "type": "string"
        },
        {
          "internalType": "bool",
          "name": "Volunteers",
          "type": "bool"
        },
        {
          "internalType": "uint256",
          "name": "VolunteersCount",
          "type": "uint256"
        },
        {
          "internalType": "uint256",
          "name": "AmountNeeded",
          "type": "uint256"
        },
        {
          "internalType": "uint256",
          "name": "id",
          "type": "uint256"
        },
        {
          "internalType": "address payable",
          "name": "Demander",
          "type": "address"
        }
      ],
      "stateMutability": "view",
      "type": "function"
    }
  ],
  "bytecode": "0x60806040526000600155600060025534801561001a57600080fd5b50611b2b8061002a6000396000f3fe60806040526004361061003f5760003560e01c80633cdb0d091461004457806393674edc1461008a578063a0c8a2a7146100a6578063f013ce6e146100cf575b600080fd5b34801561005057600080fd5b5061006b60048036038101906100669190610fb5565b61010c565b6040516100819a999897969594939291906110dd565b60405180910390f35b6100a4600480360381019061009f9190610fb5565b610435565b005b3480156100b257600080fd5b506100cd60048036038101906100c89190610fb5565b610951565b005b3480156100db57600080fd5b506100f660048036038101906100f191906112d1565b610d92565b60405161010391906113ff565b60405180910390f35b600060205280600052604060002060009150905080600001805461012f90611449565b80601f016020809104026020016040519081016040528092919081815260200182805461015b90611449565b80156101a85780601f1061017d576101008083540402835291602001916101a8565b820191906000526020600020905b81548152906001019060200180831161018b57829003601f168201915b5050505050908060010180546101bd90611449565b80601f01602080910402602001604051908101604052809291908181526020018280546101e990611449565b80156102365780601f1061020b57610100808354040283529160200191610236565b820191906000526020600020905b81548152906001019060200180831161021957829003601f168201915b50505050509080600201805461024b90611449565b80601f016020809104026020016040519081016040528092919081815260200182805461027790611449565b80156102c45780601f10610299576101008083540402835291602001916102c4565b820191906000526020600020905b8154815290600101906020018083116102a757829003601f168201915b5050505050908060030180546102d990611449565b80601f016020809104026020016040519081016040528092919081815260200182805461030590611449565b80156103525780601f1061032757610100808354040283529160200191610352565b820191906000526020600020905b81548152906001019060200180831161033557829003601f168201915b50505050509080600401805461036790611449565b80601f016020809104026020016040519081016040528092919081815260200182805461039390611449565b80156103e05780601f106103b5576101008083540402835291602001916103e0565b820191906000526020600020905b8154815290600101906020018083116103c357829003601f168201915b5050505050908060050160009054906101000a900460ff16908060060154908060070154908060080154908060090160009054906101000a900473ffffffffffffffffffffffffffffffffffffffff1690508a565b60008060008381526020019081526020016000206040518061014001604052908160008201805461046590611449565b80601f016020809104026020016040519081016040528092919081815260200182805461049190611449565b80156104de5780601f106104b3576101008083540402835291602001916104de565b820191906000526020600020905b8154815290600101906020018083116104c157829003601f168201915b505050505081526020016001820180546104f790611449565b80601f016020809104026020016040519081016040528092919081815260200182805461052390611449565b80156105705780601f1061054557610100808354040283529160200191610570565b820191906000526020600020905b81548152906001019060200180831161055357829003601f168201915b5050505050815260200160028201805461058990611449565b80601f01602080910402602001604051908101604052809291908181526020018280546105b590611449565b80156106025780601f106105d757610100808354040283529160200191610602565b820191906000526020600020905b8154815290600101906020018083116105e557829003601f168201915b5050505050815260200160038201805461061b90611449565b80601f016020809104026020016040519081016040528092919081815260200182805461064790611449565b80156106945780601f1061066957610100808354040283529160200191610694565b820191906000526020600020905b81548152906001019060200180831161067757829003601f168201915b505050505081526020016004820180546106ad90611449565b80601f01602080910402602001604051908101604052809291908181526020018280546106d990611449565b80156107265780601f106106fb57610100808354040283529160200191610726565b820191906000526020600020905b81548152906001019060200180831161070957829003601f168201915b505050505081526020016005820160009054906101000a900460ff161515151581526020016006820154815260200160078201548152602001600882015481526020016009820160009054906101000a900473ffffffffffffffffffffffffffffffffffffffff1673ffffffffffffffffffffffffffffffffffffffff1673ffffffffffffffffffffffffffffffffffffffff168152505090506000821180156107d257506001548211155b610811576040517f08c379a0000000000000000000000000000000000000000000000000000000008152600401610808906114c6565b60405180910390fd5b60003403610854576040517f08c379a000000000000000000000000000000000000000000000000000000000815260040161084b90611532565b60405180910390fd5b8060e0015134111561089b576040517f08c379a0000000000000000000000000000000000000000000000000000000008152600401610892906115c4565b60405180910390fd5b600081610120015173ffffffffffffffffffffffffffffffffffffffff16346040516108c690611615565b60006040518083038185875af1925050503d8060008114610903576040519150601f19603f3d011682016040523d82523d6000602084013e610908565b606091505b505090508061094c576040517f08c379a000000000000000000000000000000000000000000000000000000000815260040161094390611676565b60405180910390fd5b505050565b60008060008381526020019081526020016000206040518061014001604052908160008201805461098190611449565b80601f01602080910402602001604051908101604052809291908181526020018280546109ad90611449565b80156109fa5780601f106109cf576101008083540402835291602001916109fa565b820191906000526020600020905b8154815290600101906020018083116109dd57829003601f168201915b50505050508152602001600182018054610a1390611449565b80601f0160208091040260200160405190810160405280929190818152602001828054610a3f90611449565b8015610a8c5780601f10610a6157610100808354040283529160200191610a8c565b820191906000526020600020905b815481529060010190602001808311610a6f57829003601f168201915b50505050508152602001600282018054610aa590611449565b80601f0160208091040260200160405190810160405280929190818152602001828054610ad190611449565b8015610b1e5780601f10610af357610100808354040283529160200191610b1e565b820191906000526020600020905b815481529060010190602001808311610b0157829003601f168201915b50505050508152602001600382018054610b3790611449565b80601f0160208091040260200160405190810160405280929190818152602001828054610b6390611449565b8015610bb05780601f10610b8557610100808354040283529160200191610bb0565b820191906000526020600020905b815481529060010190602001808311610b9357829003601f168201915b50505050508152602001600482018054610bc990611449565b80601f0160208091040260200160405190810160405280929190818152602001828054610bf590611449565b8015610c425780601f10610c1757610100808354040283529160200191610c42565b820191906000526020600020905b815481529060010190602001808311610c2557829003601f168201915b505050505081526020016005820160009054906101000a900460ff161515151581526020016006820154815260200160078201548152602001600882015481526020016009820160009054906101000a900473ffffffffffffffffffffffffffffffffffffffff1673ffffffffffffffffffffffffffffffffffffffff1673ffffffffffffffffffffffffffffffffffffffff16815250509050600082118015610cee57506001548211155b610d2d576040517f08c379a0000000000000000000000000000000000000000000000000000000008152600401610d24906116e2565b60405180910390fd5b60026000815480929190610d4090611731565b91905055508060c001516002541115610d8e576040517f08c379a0000000000000000000000000000000000000000000000000000000008152600401610d85906117c5565b60405180910390fd5b5050565b6000808211610dd6576040517f08c379a0000000000000000000000000000000000000000000000000000000008152600401610dcd90611857565b60405180910390fd5b60016000815480929190610de990611731565b919050555060405180610140016040528089815260200188815260200185815260200187815260200184815260200160011515815260200186815260200183815260200160015481526020013373ffffffffffffffffffffffffffffffffffffffff1681525060008060015481526020019081526020016000206000820151816000019081610e789190611a23565b506020820151816001019081610e8e9190611a23565b506040820151816002019081610ea49190611a23565b506060820151816003019081610eba9190611a23565b506080820151816004019081610ed09190611a23565b5060a08201518160050160006101000a81548160ff02191690831515021790555060c0820151816006015560e0820151816007015561010082015181600801556101208201518160090160006101000a81548173ffffffffffffffffffffffffffffffffffffffff021916908373ffffffffffffffffffffffffffffffffffffffff1602179055509050506001549050979650505050505050565b6000604051905090565b600080fd5b600080fd5b6000819050919050565b610f9281610f7f565b8114610f9d57600080fd5b50565b600081359050610faf81610f89565b92915050565b600060208284031215610fcb57610fca610f75565b5b6000610fd984828501610fa0565b91505092915050565b600081519050919050565b600082825260208201905092915050565b60005b8381101561101c578082015181840152602081019050611001565b60008484015250505050565b6000601f19601f8301169050919050565b600061104482610fe2565b61104e8185610fed565b935061105e818560208601610ffe565b61106781611028565b840191505092915050565b60008115159050919050565b61108781611072565b82525050565b61109681610f7f565b82525050565b600073ffffffffffffffffffffffffffffffffffffffff82169050919050565b60006110c78261109c565b9050919050565b6110d7816110bc565b82525050565b60006101408201905081810360008301526110f8818d611039565b9050818103602083015261110c818c611039565b90508181036040830152611120818b611039565b90508181036060830152611134818a611039565b905081810360808301526111488189611039565b905061115760a083018861107e565b61116460c083018761108d565b61117160e083018661108d565b61117f61010083018561108d565b61118d6101208301846110ce565b9b9a5050505050505050505050565b600080fd5b600080fd5b7f4e487b7100000000000000000000000000000000000000000000000000000000600052604160045260246000fd5b6111de82611028565b810181811067ffffffffffffffff821117156111fd576111fc6111a6565b5b80604052505050565b6000611210610f6b565b905061121c82826111d5565b919050565b600067ffffffffffffffff82111561123c5761123b6111a6565b5b61124582611028565b9050602081019050919050565b82818337600083830152505050565b600061127461126f84611221565b611206565b9050828152602081018484840111156112905761128f6111a1565b5b61129b848285611252565b509392505050565b600082601f8301126112b8576112b761119c565b5b81356112c8848260208601611261565b91505092915050565b600080600080600080600060e0888a0312156112f0576112ef610f75565b5b600088013567ffffffffffffffff81111561130e5761130d610f7a565b5b61131a8a828b016112a3565b975050602088013567ffffffffffffffff81111561133b5761133a610f7a565b5b6113478a828b016112a3565b965050604088013567ffffffffffffffff81111561136857611367610f7a565b5b6113748a828b016112a3565b95505060606113858a828b01610fa0565b945050608088013567ffffffffffffffff8111156113a6576113a5610f7a565b5b6113b28a828b016112a3565b93505060a088013567ffffffffffffffff8111156113d3576113d2610f7a565b5b6113df8a828b016112a3565b92505060c06113f08a828b01610fa0565b91505092959891949750929550565b6000602082019050611414600083018461108d565b92915050565b7f4e487b7100000000000000000000000000000000000000000000000000000000600052602260045260246000fd5b6000600282049050600182168061146157607f821691505b6020821081036114745761147361141a565b5b50919050565b7f20696e76616c69642069642f2e2e2e0000000000000000000000000000000000600082015250565b60006114b0600f83610fed565b91506114bb8261147a565b602082019050919050565b600060208201905081810360008301526114df816114a3565b9050919050565b7f5a65726f5b305d20686173206e6f2076616c75652f2e2e2e0000000000000000600082015250565b600061151c601883610fed565b9150611527826114e6565b602082019050919050565b6000602082019050818103600083015261154b8161150f565b9050919050565b7f656e74657220616d6f756e74206f722066756e6420616c7265647920636f6c6c60008201527f65637465642f2e2e2e0000000000000000000000000000000000000000000000602082015250565b60006115ae602983610fed565b91506115b982611552565b604082019050919050565b600060208201905081810360008301526115dd816115a1565b9050919050565b600081905092915050565b50565b60006115ff6000836115e4565b915061160a826115ef565b600082019050919050565b6000611620826115f2565b9150819050919050565b7f6661696c656420746f2073656e64206d6f6e6579000000000000000000000000600082015250565b6000611660601483610fed565b915061166b8261162a565b602082019050919050565b6000602082019050818103600083015261168f81611653565b9050919050565b7f696e76616c69642069642f2e2e2e000000000000000000000000000000000000600082015250565b60006116cc600e83610fed565b91506116d782611696565b602082019050919050565b600060208201905081810360008301526116fb816116bf565b9050919050565b7f4e487b7100000000000000000000000000000000000000000000000000000000600052601160045260246000fd5b600061173c82610f7f565b91507fffffffffffffffffffffffffffffffffffffffffffffffffffffffffffffffff820361176e5761176d611702565b5b600182019050919050565b7f616c7265647920766f6c73206a6f696e65642f2e2e2e00000000000000000000600082015250565b60006117af601683610fed565b91506117ba82611779565b602082019050919050565b600060208201905081810360008301526117de816117a2565b9050919050565b7f5265717565737420616d6f756e74206d7573742062652067726561746572207460008201527f68616e207a65726f210000000000000000000000000000000000000000000000602082015250565b6000611841602983610fed565b915061184c826117e5565b604082019050919050565b6000602082019050818103600083015261187081611834565b9050919050565b60008190508160005260206000209050919050565b60006020601f8301049050919050565b600082821b905092915050565b6000600883026118d97fffffffffffffffffffffffffffffffffffffffffffffffffffffffffffffffff8261189c565b6118e3868361189c565b95508019841693508086168417925050509392505050565b6000819050919050565b600061192061191b61191684610f7f565b6118fb565b610f7f565b9050919050565b6000819050919050565b61193a83611905565b61194e61194682611927565b8484546118a9565b825550505050565b600090565b611963611956565b61196e818484611931565b505050565b5b818110156119925761198760008261195b565b600181019050611974565b5050565b601f8211156119d7576119a881611877565b6119b18461188c565b810160208510156119c0578190505b6119d46119cc8561188c565b830182611973565b50505b505050565b600082821c905092915050565b60006119fa600019846008026119dc565b1980831691505092915050565b6000611a1383836119e9565b9150826002028217905092915050565b611a2c82610fe2565b67ffffffffffffffff811115611a4557611a446111a6565b5b611a4f8254611449565b611a5a828285611996565b600060209050601f831160018114611a8d5760008415611a7b578287015190505b611a858582611a07565b865550611aed565b601f198416611a9b86611877565b60005b82811015611ac357848901518255600182019150602085019450602081019050611a9e565b86831015611ae05784890151611adc601f8916826119e9565b8355505b6001600288020188555050505b50505050505056fea2646970667358221220f145d104234da6e4f8596ddf138f606cbebd7712b15e8882da4b85bdc9260c8664736f6c63430008180033",
  "linkReferences": {},
  "deployedLinkReferences": {}
}