{
  "_format": "hh-sol-artifact-1",
  "contractName": "DisasterManagements",
  "sourceName": "contracts/DisasterManagement.sol",
  "abi": [
    {
      "inputs": [
        {
          "internalType": "string",
          "name": "_image",
          "type": "string"
        },
        {
          "internalType": "string",
          "name": "_cause",
          "type": "string"
        },
        {
          "internalType": "string",
          "name": "_location",
          "type": "string"
        },
        {
          "internalType": "uint256",
          "name": "_volCount",
          "type": "uint256"
        },
        {
          "internalType": "string",
          "name": "_description",
          "type": "string"
        },
        {
          "internalType": "string",
          "name": "_data",
          "type": "string"
        },
        {
          "internalType": "uint256",
          "name": "_amount",
          "type": "uint256"
        }
      ],
      "name": "DemandFund",
      "outputs": [
        {
          "internalType": "uint256",
          "name": "",
          "type": "uint256"
        }
      ],
      "stateMutability": "nonpayable",
      "type": "function"
    },
    {
      "inputs": [],
      "name": "DisasterReturner",
      "outputs": [
        {
          "components": [
            {
              "internalType": "string",
              "name": "Image",
              "type": "string"
            },
            {
              "internalType": "string",
              "name": "DisasterCause",
              "type": "string"
            },
            {
              "internalType": "string",
              "name": "description",
              "type": "string"
            },
            {
              "internalType": "string",
              "name": "location",
              "type": "string"
            },
            {
              "internalType": "string",
              "name": "Date",
              "type": "string"
            },
            {
              "internalType": "bool",
              "name": "Volunteers",
              "type": "bool"
            },
            {
              "internalType": "uint256",
              "name": "VolunteersCount",
              "type": "uint256"
            },
            {
              "internalType": "uint256",
              "name": "AmountNeeded",
              "type": "uint256"
            },
            {
              "internalType": "uint256",
              "name": "id",
              "type": "uint256"
            },
            {
              "internalType": "address payable",
              "name": "Demander",
              "type": "address"
            }
          ],
          "internalType": "struct DisasterManagements.Disaster[]",
          "name": "",
          "type": "tuple[]"
        }
      ],
      "stateMutability": "view",
      "type": "function"
    },
    {
      "inputs": [
        {
          "internalType": "uint256",
          "name": "_id",
          "type": "uint256"
        }
      ],
      "name": "Fundder",
      "outputs": [],
      "stateMutability": "payable",
      "type": "function"
    },
    {
      "inputs": [
        {
          "internalType": "uint256",
          "name": "_id",
          "type": "uint256"
        }
      ],
      "name": "Volunteer",
      "outputs": [],
      "stateMutability": "nonpayable",
      "type": "function"
    },
    {
      "inputs": [
        {
          "internalType": "uint256",
          "name": "",
          "type": "uint256"
        }
      ],
      "name": "disasters",
      "outputs": [
        {
          "internalType": "string",
          "name": "Image",
          "type": "string"
        },
        {
          "internalType": "string",
          "name": "DisasterCause",
          "type": "string"
        },
        {
          "internalType": "string",
          "name": "description",
          "type": "string"
        },
        {
          "internalType": "string",
          "name": "location",
          "type": "string"
        },
        {
          "internalType": "string",
          "name": "Date",
          "type": "string"
        },
        {
          "internalType": "bool",
          "name": "Volunteers",
          "type": "bool"
        },
        {
          "internalType": "uint256",
          "name": "VolunteersCount",
          "type": "uint256"
        },
        {
          "internalType": "uint256",
          "name": "AmountNeeded",
          "type": "uint256"
        },
        {
          "internalType": "uint256",
          "name": "id",
          "type": "uint256"
        },
        {
          "internalType": "address payable",
          "name": "Demander",
          "type": "address"
        }
      ],
      "stateMutability": "view",
      "type": "function"
    }
  ],
  "bytecode": "0x60806040526000600155600060025534801561001a57600080fd5b506122758061002a6000396000f3fe60806040526004361061004a5760003560e01c80633cdb0d091461004f5780637d0d5b3e1461009557806393674edc146100c0578063a0c8a2a7146100dc578063f013ce6e14610105575b600080fd5b34801561005b57600080fd5b506100766004803603810190610071919061147f565b610142565b60405161008c9a999897969594939291906115a7565b60405180910390f35b3480156100a157600080fd5b506100aa61046b565b6040516100b79190611895565b60405180910390f35b6100da60048036038101906100d5919061147f565b610894565b005b3480156100e857600080fd5b5061010360048036038101906100fe919061147f565b610db0565b005b34801561011157600080fd5b5061012c600480360381019061012791906119ec565b6111f1565b6040516101399190611b1a565b60405180910390f35b600060205280600052604060002060009150905080600001805461016590611b64565b80601f016020809104026020016040519081016040528092919081815260200182805461019190611b64565b80156101de5780601f106101b3576101008083540402835291602001916101de565b820191906000526020600020905b8154815290600101906020018083116101c157829003601f168201915b5050505050908060010180546101f390611b64565b80601f016020809104026020016040519081016040528092919081815260200182805461021f90611b64565b801561026c5780601f106102415761010080835404028352916020019161026c565b820191906000526020600020905b81548152906001019060200180831161024f57829003601f168201915b50505050509080600201805461028190611b64565b80601f01602080910402602001604051908101604052809291908181526020018280546102ad90611b64565b80156102fa5780601f106102cf576101008083540402835291602001916102fa565b820191906000526020600020905b8154815290600101906020018083116102dd57829003601f168201915b50505050509080600301805461030f90611b64565b80601f016020809104026020016040519081016040528092919081815260200182805461033b90611b64565b80156103885780601f1061035d57610100808354040283529160200191610388565b820191906000526020600020905b81548152906001019060200180831161036b57829003601f168201915b50505050509080600401805461039d90611b64565b80601f01602080910402602001604051908101604052809291908181526020018280546103c990611b64565b80156104165780601f106103eb57610100808354040283529160200191610416565b820191906000526020600020905b8154815290600101906020018083116103f957829003601f168201915b5050505050908060050160009054906101000a900460ff16908060060154908060070154908060080154908060090160009054906101000a900473ffffffffffffffffffffffffffffffffffffffff1690508a565b6060600060015467ffffffffffffffff81111561048b5761048a6118c1565b5b6040519080825280602002602001820160405280156104c457816020015b6104b16113ca565b8152602001906001900390816104a95790505b50905060005b60015481101561088c5760008060008381526020019081526020016000209050806040518061014001604052908160008201805461050790611b64565b80601f016020809104026020016040519081016040528092919081815260200182805461053390611b64565b80156105805780601f1061055557610100808354040283529160200191610580565b820191906000526020600020905b81548152906001019060200180831161056357829003601f168201915b5050505050815260200160018201805461059990611b64565b80601f01602080910402602001604051908101604052809291908181526020018280546105c590611b64565b80156106125780601f106105e757610100808354040283529160200191610612565b820191906000526020600020905b8154815290600101906020018083116105f557829003601f168201915b5050505050815260200160028201805461062b90611b64565b80601f016020809104026020016040519081016040528092919081815260200182805461065790611b64565b80156106a45780601f10610679576101008083540402835291602001916106a4565b820191906000526020600020905b81548152906001019060200180831161068757829003601f168201915b505050505081526020016003820180546106bd90611b64565b80601f01602080910402602001604051908101604052809291908181526020018280546106e990611b64565b80156107365780601f1061070b57610100808354040283529160200191610736565b820191906000526020600020905b81548152906001019060200180831161071957829003601f168201915b5050505050815260200160048201805461074f90611b64565b80601f016020809104026020016040519081016040528092919081815260200182805461077b90611b64565b80156107c85780601f1061079d576101008083540402835291602001916107c8565b820191906000526020600020905b8154815290600101906020018083116107ab57829003601f168201915b505050505081526020016005820160009054906101000a900460ff161515151581526020016006820154815260200160078201548152602001600882015481526020016009820160009054906101000a900473ffffffffffffffffffffffffffffffffffffffff1673ffffffffffffffffffffffffffffffffffffffff1673ffffffffffffffffffffffffffffffffffffffff168152505083838151811061087357610872611b95565b5b60200260200101819052505080806001019150506104ca565b508091505090565b6000806000838152602001908152602001600020604051806101400160405290816000820180546108c490611b64565b80601f01602080910402602001604051908101604052809291908181526020018280546108f090611b64565b801561093d5780601f106109125761010080835404028352916020019161093d565b820191906000526020600020905b81548152906001019060200180831161092057829003601f168201915b5050505050815260200160018201805461095690611b64565b80601f016020809104026020016040519081016040528092919081815260200182805461098290611b64565b80156109cf5780601f106109a4576101008083540402835291602001916109cf565b820191906000526020600020905b8154815290600101906020018083116109b257829003601f168201915b505050505081526020016002820180546109e890611b64565b80601f0160208091040260200160405190810160405280929190818152602001828054610a1490611b64565b8015610a615780601f10610a3657610100808354040283529160200191610a61565b820191906000526020600020905b815481529060010190602001808311610a4457829003601f168201915b50505050508152602001600382018054610a7a90611b64565b80601f0160208091040260200160405190810160405280929190818152602001828054610aa690611b64565b8015610af35780601f10610ac857610100808354040283529160200191610af3565b820191906000526020600020905b815481529060010190602001808311610ad657829003601f168201915b50505050508152602001600482018054610b0c90611b64565b80601f0160208091040260200160405190810160405280929190818152602001828054610b3890611b64565b8015610b855780601f10610b5a57610100808354040283529160200191610b85565b820191906000526020600020905b815481529060010190602001808311610b6857829003601f168201915b505050505081526020016005820160009054906101000a900460ff161515151581526020016006820154815260200160078201548152602001600882015481526020016009820160009054906101000a900473ffffffffffffffffffffffffffffffffffffffff1673ffffffffffffffffffffffffffffffffffffffff1673ffffffffffffffffffffffffffffffffffffffff16815250509050600082118015610c3157506001548211155b610c70576040517f08c379a0000000000000000000000000000000000000000000000000000000008152600401610c6790611c10565b60405180910390fd5b60003403610cb3576040517f08c379a0000000000000000000000000000000000000000000000000000000008152600401610caa90611c7c565b60405180910390fd5b8060e00151341115610cfa576040517f08c379a0000000000000000000000000000000000000000000000000000000008152600401610cf190611d0e565b60405180910390fd5b600081610120015173ffffffffffffffffffffffffffffffffffffffff1634604051610d2590611d5f565b60006040518083038185875af1925050503d8060008114610d62576040519150601f19603f3d011682016040523d82523d6000602084013e610d67565b606091505b5050905080610dab576040517f08c379a0000000000000000000000000000000000000000000000000000000008152600401610da290611dc0565b60405180910390fd5b505050565b600080600083815260200190815260200160002060405180610140016040529081600082018054610de090611b64565b80601f0160208091040260200160405190810160405280929190818152602001828054610e0c90611b64565b8015610e595780601f10610e2e57610100808354040283529160200191610e59565b820191906000526020600020905b815481529060010190602001808311610e3c57829003601f168201915b50505050508152602001600182018054610e7290611b64565b80601f0160208091040260200160405190810160405280929190818152602001828054610e9e90611b64565b8015610eeb5780601f10610ec057610100808354040283529160200191610eeb565b820191906000526020600020905b815481529060010190602001808311610ece57829003601f168201915b50505050508152602001600282018054610f0490611b64565b80601f0160208091040260200160405190810160405280929190818152602001828054610f3090611b64565b8015610f7d5780601f10610f5257610100808354040283529160200191610f7d565b820191906000526020600020905b815481529060010190602001808311610f6057829003601f168201915b50505050508152602001600382018054610f9690611b64565b80601f0160208091040260200160405190810160405280929190818152602001828054610fc290611b64565b801561100f5780601f10610fe45761010080835404028352916020019161100f565b820191906000526020600020905b815481529060010190602001808311610ff257829003601f168201915b5050505050815260200160048201805461102890611b64565b80601f016020809104026020016040519081016040528092919081815260200182805461105490611b64565b80156110a15780601f10611076576101008083540402835291602001916110a1565b820191906000526020600020905b81548152906001019060200180831161108457829003601f168201915b505050505081526020016005820160009054906101000a900460ff161515151581526020016006820154815260200160078201548152602001600882015481526020016009820160009054906101000a900473ffffffffffffffffffffffffffffffffffffffff1673ffffffffffffffffffffffffffffffffffffffff1673ffffffffffffffffffffffffffffffffffffffff1681525050905060008211801561114d57506001548211155b61118c576040517f08c379a000000000000000000000000000000000000000000000000000000000815260040161118390611e2c565b60405180910390fd5b6002600081548092919061119f90611e7b565b91905055508060c0015160025411156111ed576040517f08c379a00000000000000000000000000000000000000000000000000000000081526004016111e490611f0f565b60405180910390fd5b5050565b6000808211611235576040517f08c379a000000000000000000000000000000000000000000000000000000000815260040161122c90611fa1565b60405180910390fd5b6001600081548092919061124890611e7b565b919050555060405180610140016040528089815260200188815260200185815260200187815260200184815260200160011515815260200186815260200183815260200160015481526020013373ffffffffffffffffffffffffffffffffffffffff16815250600080600154815260200190815260200160002060008201518160000190816112d7919061216d565b5060208201518160010190816112ed919061216d565b506040820151816002019081611303919061216d565b506060820151816003019081611319919061216d565b50608082015181600401908161132f919061216d565b5060a08201518160050160006101000a81548160ff02191690831515021790555060c0820151816006015560e0820151816007015561010082015181600801556101208201518160090160006101000a81548173ffffffffffffffffffffffffffffffffffffffff021916908373ffffffffffffffffffffffffffffffffffffffff1602179055509050506001549050979650505050505050565b6040518061014001604052806060815260200160608152602001606081526020016060815260200160608152602001600015158152602001600081526020016000815260200160008152602001600073ffffffffffffffffffffffffffffffffffffffff1681525090565b6000604051905090565b600080fd5b600080fd5b6000819050919050565b61145c81611449565b811461146757600080fd5b50565b60008135905061147981611453565b92915050565b6000602082840312156114955761149461143f565b5b60006114a38482850161146a565b91505092915050565b600081519050919050565b600082825260208201905092915050565b60005b838110156114e65780820151818401526020810190506114cb565b60008484015250505050565b6000601f19601f8301169050919050565b600061150e826114ac565b61151881856114b7565b93506115288185602086016114c8565b611531816114f2565b840191505092915050565b60008115159050919050565b6115518161153c565b82525050565b61156081611449565b82525050565b600073ffffffffffffffffffffffffffffffffffffffff82169050919050565b600061159182611566565b9050919050565b6115a181611586565b82525050565b60006101408201905081810360008301526115c2818d611503565b905081810360208301526115d6818c611503565b905081810360408301526115ea818b611503565b905081810360608301526115fe818a611503565b905081810360808301526116128189611503565b905061162160a0830188611548565b61162e60c0830187611557565b61163b60e0830186611557565b611649610100830185611557565b611657610120830184611598565b9b9a5050505050505050505050565b600081519050919050565b600082825260208201905092915050565b6000819050602082019050919050565b600082825260208201905092915050565b60006116ae826114ac565b6116b88185611692565b93506116c88185602086016114c8565b6116d1816114f2565b840191505092915050565b6116e58161153c565b82525050565b6116f481611449565b82525050565b61170381611586565b82525050565b600061014083016000830151848203600086015261172782826116a3565b9150506020830151848203602086015261174182826116a3565b9150506040830151848203604086015261175b82826116a3565b9150506060830151848203606086015261177582826116a3565b9150506080830151848203608086015261178f82826116a3565b91505060a08301516117a460a08601826116dc565b5060c08301516117b760c08601826116eb565b5060e08301516117ca60e08601826116eb565b506101008301516117df6101008601826116eb565b506101208301516117f46101208601826116fa565b508091505092915050565b600061180b8383611709565b905092915050565b6000602082019050919050565b600061182b82611666565b6118358185611671565b93508360208202850161184785611682565b8060005b85811015611883578484038952815161186485826117ff565b945061186f83611813565b925060208a0199505060018101905061184b565b50829750879550505050505092915050565b600060208201905081810360008301526118af8184611820565b905092915050565b600080fd5b600080fd5b7f4e487b7100000000000000000000000000000000000000000000000000000000600052604160045260246000fd5b6118f9826114f2565b810181811067ffffffffffffffff82111715611918576119176118c1565b5b80604052505050565b600061192b611435565b905061193782826118f0565b919050565b600067ffffffffffffffff821115611957576119566118c1565b5b611960826114f2565b9050602081019050919050565b82818337600083830152505050565b600061198f61198a8461193c565b611921565b9050828152602081018484840111156119ab576119aa6118bc565b5b6119b684828561196d565b509392505050565b600082601f8301126119d3576119d26118b7565b5b81356119e384826020860161197c565b91505092915050565b600080600080600080600060e0888a031215611a0b57611a0a61143f565b5b600088013567ffffffffffffffff811115611a2957611a28611444565b5b611a358a828b016119be565b975050602088013567ffffffffffffffff811115611a5657611a55611444565b5b611a628a828b016119be565b965050604088013567ffffffffffffffff811115611a8357611a82611444565b5b611a8f8a828b016119be565b9550506060611aa08a828b0161146a565b945050608088013567ffffffffffffffff811115611ac157611ac0611444565b5b611acd8a828b016119be565b93505060a088013567ffffffffffffffff811115611aee57611aed611444565b5b611afa8a828b016119be565b92505060c0611b0b8a828b0161146a565b91505092959891949750929550565b6000602082019050611b2f6000830184611557565b92915050565b7f4e487b7100000000000000000000000000000000000000000000000000000000600052602260045260246000fd5b60006002820490506001821680611b7c57607f821691505b602082108103611b8f57611b8e611b35565b5b50919050565b7f4e487b7100000000000000000000000000000000000000000000000000000000600052603260045260246000fd5b7f20696e76616c69642069642f2e2e2e0000000000000000000000000000000000600082015250565b6000611bfa600f836114b7565b9150611c0582611bc4565b602082019050919050565b60006020820190508181036000830152611c2981611bed565b9050919050565b7f5a65726f5b305d20686173206e6f2076616c75652f2e2e2e0000000000000000600082015250565b6000611c666018836114b7565b9150611c7182611c30565b602082019050919050565b60006020820190508181036000830152611c9581611c59565b9050919050565b7f656e74657220616d6f756e74206f722066756e6420616c7265647920636f6c6c60008201527f65637465642f2e2e2e0000000000000000000000000000000000000000000000602082015250565b6000611cf86029836114b7565b9150611d0382611c9c565b604082019050919050565b60006020820190508181036000830152611d2781611ceb565b9050919050565b600081905092915050565b50565b6000611d49600083611d2e565b9150611d5482611d39565b600082019050919050565b6000611d6a82611d3c565b9150819050919050565b7f6661696c656420746f2073656e64206d6f6e6579000000000000000000000000600082015250565b6000611daa6014836114b7565b9150611db582611d74565b602082019050919050565b60006020820190508181036000830152611dd981611d9d565b9050919050565b7f696e76616c69642069642f2e2e2e000000000000000000000000000000000000600082015250565b6000611e16600e836114b7565b9150611e2182611de0565b602082019050919050565b60006020820190508181036000830152611e4581611e09565b9050919050565b7f4e487b7100000000000000000000000000000000000000000000000000000000600052601160045260246000fd5b6000611e8682611449565b91507fffffffffffffffffffffffffffffffffffffffffffffffffffffffffffffffff8203611eb857611eb7611e4c565b5b600182019050919050565b7f616c7265647920766f6c73206a6f696e65642f2e2e2e00000000000000000000600082015250565b6000611ef96016836114b7565b9150611f0482611ec3565b602082019050919050565b60006020820190508181036000830152611f2881611eec565b9050919050565b7f5265717565737420616d6f756e74206d7573742062652067726561746572207460008201527f68616e207a65726f210000000000000000000000000000000000000000000000602082015250565b6000611f8b6029836114b7565b9150611f9682611f2f565b604082019050919050565b60006020820190508181036000830152611fba81611f7e565b9050919050565b60008190508160005260206000209050919050565b60006020601f8301049050919050565b600082821b905092915050565b6000600883026120237fffffffffffffffffffffffffffffffffffffffffffffffffffffffffffffffff82611fe6565b61202d8683611fe6565b95508019841693508086168417925050509392505050565b6000819050919050565b600061206a61206561206084611449565b612045565b611449565b9050919050565b6000819050919050565b6120848361204f565b61209861209082612071565b848454611ff3565b825550505050565b600090565b6120ad6120a0565b6120b881848461207b565b505050565b5b818110156120dc576120d16000826120a5565b6001810190506120be565b5050565b601f821115612121576120f281611fc1565b6120fb84611fd6565b8101602085101561210a578190505b61211e61211685611fd6565b8301826120bd565b50505b505050565b600082821c905092915050565b600061214460001984600802612126565b1980831691505092915050565b600061215d8383612133565b9150826002028217905092915050565b612176826114ac565b67ffffffffffffffff81111561218f5761218e6118c1565b5b6121998254611b64565b6121a48282856120e0565b600060209050601f8311600181146121d757600084156121c5578287015190505b6121cf8582612151565b865550612237565b601f1984166121e586611fc1565b60005b8281101561220d578489015182556001820191506020850194506020810190506121e8565b8683101561222a5784890151612226601f891682612133565b8355505b6001600288020188555050505b50505050505056fea26469706673582212204adb65ec29406269e054914fe6de4489423714fafc23dedba4ae8b71ef27dc1264736f6c63430008180033",
  "linkReferences": {},
  "deployedLinkReferences": {}
}